:020000040800F2
:10000000580F002015030008A1030008A3030008EF
:10001000A7030008AB030008AF03000800000000BE
:10002000000000000000000000000000B303000812
:10003000B503000800000000B7030008B90300087A
:100040002F0300082F0300082F03000839040008BD
:100050002F0300082F030008BB0300082F0300082C
:10006000031800082F0300082F0300082F030008BF
:100070002F0300082F0300082F0300082F03000898
:100080002F0300082F0300082F0300082F03000888
:100090002F0300082F0300082F0300082F03000878
:1000A0002F0300082F0300082F0300082F03000868
:1000B0002F0300082F0300082F0300082F03000858
:1000C0002F0300082F0300082F0300082F03000848
:1000D0002F030008BD030008BF0300082F0300081A
:1000E000391700082F0300082F0300082F0300080A
:1000F0002F0300082F0300082F0300082F03000818
:100100002F0300082F0300082F0300082F03000807
:100110002F0300082F0300082F0300082F030008F7
:100120002F0300082F0300082F0300082F030008E7
:10013000DFF80CD005F05EFC0048004739030008EA
:10014000580F002000210020674A126842F48032D4
:10015000654B1A6000BF644A126802F40030491C03
:1001600010B9B1F5A06FF6D15F4A126812F4003FE2
:1001700001D0012000E00020012842D15B4A126832
:1001800042F01002594B1A601A46126822F003021C
:100190001A601A46126842F002021A60524A526805
:1001A000514B5A601A4652685A601A46526842F4D5
:1001B00080625A601A46526822F47C125A601A46CB
:1001C000526842F450225A601A46126842F0807215
:1001D0001A6000BF444A126812F0007FFAD0424A07
:1001E000526822F00302404B5A601A46526842F0AD
:1001F00002025A6000BF3C4A526802F00C02082A10
:10020000F9D1704710B5FFF79DFF10BD10B5364806
:10021000006840F0010034490860084640683449ED
:1002200008403149486008460068324908402E4974
:1002300008600846006820F480200860084640688E
:1002400020F4FE0048604FF41F008860FFF7DAFFDB
:100250004FF000602849086010BD10B50021002053
:100260000022214B5B6803F00C0121B1042906D068
:10027000082928D107E0214B214C236027E0214B9E
:100280001F4C236023E0184B5B6803F47010164B7F
:100290005B6803F48032022303EB904022B91A4BCF
:1002A0004343174C23600DE00F4B5B6813F4003F92
:1002B00004D0164B4343124C236003E0114B4343DD
:1002C0000F4C236003E00D4B0D4C236000BF00BFBB
:1002D000054B5B68C3F303130D4CE15C084B1B68D3
:1002E000CB40074C236010BD0010024000200240AC
:1002F0000000FFF8FFFFF6FE08ED00E000127A00B4
:1003000000000020001BB70000093D00808D5B004D
:10031000040000200648804706480047FEE7FEE745
:10032000FEE7FEE7FEE7FEE7FEE7FEE7FEE7FEE7A5
:100330000D0200083101000800F0F8FF01F04DF94E
:1003400000F01AFF00F082FF15E00F21012001F0FC
:100350007BF804F01FFC142207A10FA004F0DAFCC4
:1003600008E01E2004F029FD10B904F01FFF01E091
:1003700004F010FCF5E7E8E73066334658646D5A40
:10038000376F643069755659565A426B694A6561D0
:100390004A62673D000000003737313332330000D6
:1003A000704700BFFEE700BFFEE700BFFEE700BFEB
:1003B000FEE770477047704770477047704710B549
:1003C0001E48008810F00F0F03D01C48001D048841
:1003D00031E01A48008810F0200F2CD01748001D7B
:1003E000048817490868411C154B196015490C54BD
:1003F0007B2C02D101201449087013480078012891
:1004000019D112490868411C104B196010490C544D
:100410007D2C03D018460068FF280CD300200A4921
:10042000087000F0A9FF09480168094804F083FF3B
:1004300000200649086010BD7047000000440040DD
:100440002C00002058000020280000203000002050
:100450005804002031490143314A1160704770B59A
:10046000002100230F22C4780CB32D4C246804F41F
:10047000E064C4F5E064210AC1F10403CA40447891
:1004800004FA03F18478144021430901254C0678CD
:10049000A155047804F01F050124AC4005786D11C6
:1004A0004FF0E02606EB8505C5F8004109E0047829
:1004B00004F01F050124AC401B4D0678761145F869
:1004C000264070BD194A0A400243154B1B1F1A6093
:1004D000704739B1124A121D12680243104B1B1D9E
:1004E0001A6006E00E4A121D126882430C4B1B1D57
:1004F0001A607047042808D14FF0E021096941F0E3
:1005000004014FF0E022116107E04FF0E02109699A
:1005100021F004014FF0E022116170470000FA055C
:100520000CED00E000E400E080E100E080FFFF1F50
:10053000002044490860091D0860091D0860091D64
:10054000086041483F4914310860704700213D4927
:100550008279002A3AD00A46126803689A430B4609
:100560001A600A1D126803689A430B1D1A6002790B
:1005700011440A6803681A430A60324A0832126852
:1005800003689A432F4B08331A601A1D12680368D8
:100590009A432C4B0C331A604279102A0ED11A1F41
:1005A000126803681A43274B08331A601A1D126831
:1005B00003681A43234B0C331A600DE0214942793A
:1005C00011440A6803681A430A6005E0027911447D
:1005D0000A6803689A430A6070470021016001714C
:1005E0000C21417100218171704716491031096851
:1005F0000143144A10321160704701460020114A2D
:10060000143212680A4201D0012000E00020704735
:100610000C49143108607047014600200022094B44
:100620001B6803EA0102074B14331B680B4202D01C
:100630000AB1012000E0002070470249143108602F
:100640007047000000040140FFFF0F0010B5044692
:10065000CA48844208D10121042000F025FB002172
:10066000042000F021FB46E0C548844208D1012166
:10067000082000F019FB0021082000F015FB3AE0EB
:10068000C048844208D10121102000F00DFB002158
:10069000102000F009FB2EE0BB48844208D1012164
:1006A000202000F001FB0021202000F0FDFA22E0D4
:1006B000B648844208D10121402000F0F5FA00211B
:1006C000402000F0F1FA16E0B148844208D101213F
:1006D000802000F0E9FA0021802000F0E5FA0AE02D
:1006E000AC48844207D10121801500F0DDFA0021D9
:1006F000A01500F0D9FA10BD10B50121084600F090
:10070000D3FA0021012000F0CFFA10BD2DE9F0410D
:10071000024600250026002000230024002791F82F
:1007200003C00CF00F0591F803C01CF0100F03D0AC
:1007300091F802C04CEA0505B1F800C01CF0FF0FAB
:1007400031D0146800202BE04FF0010C0CFA00F3BC
:10075000B1F800C00CEA03069E4220D183004FF09E
:100760000F0C0CFA03F7BC4305FA03FC4CEA040433
:1007700091F803C0BCF1280F06D14FF0010C0CFA20
:1007800000FCC2F814C00AE091F803C0BCF1480FA5
:1007900005D14FF0010C0CFA00FCC2F810C0401C4F
:1007A0000828D1D31460B1F800C0BCF1FF0F34DDCC
:1007B000546800202EE000F1080C4FF0010808FA00
:1007C0000CF3B1F800C00CEA03069E4221D183006D
:1007D0004FF00F0C0CFA03F7BC4305FA03FC4CEA8C
:1007E000040491F803C0BCF1280F05D100F1080CF6
:1007F00008FA0CF8C2F8148091F803C0BCF1480F55
:1008000007D100F1080C4FF0010808FA0CF8C2F803
:100810001080401C0828CED35460BDE8F0814FF60C
:10082000FF710180022181700421C170704702466E
:10083000002093680B4201D0012000E000207047A7
:100840000146886880B2704702460020D3680B4298
:1008500001D0012000E0002070470146C86880B246
:10086000704701617047416170470AB1016100E062
:1008700041617047C16070474FF480320A43826122
:100880008161826182698269704702460020424B21
:1008900018684FF68073184040EA021008433E4B38
:1008A000186070473D49C8617047F0B50A4600239B
:1008B00000240021002500F00046B6F1004F02D1CF
:1008C000354EF16901E0344E7168C0F3034583B2DF
:1008D00000F44016B6F5401F08D121F070612E4E8D
:1008E000766826F070662C4F7E6012E000F4801669
:1008F000B6F5801F06D1032606FA05F4A14341F0A0
:10090000706106E0460D360103FA06F6B14341F088
:10091000706122B1460D360103FA06F6314300F04C
:100920000046B6F1004F02D11B4EF16101E01A4EB4
:100930007160F0BD30B500228B071C0F0F2303FA46
:1009400004F2154B08338C1053F824309343124CA7
:1009500008348D1044F8253023468C1053F8243089
:100960008C07240F00FA04F423430B4C08348D1039
:1009700044F8253030BD0A4908607047000801403E
:10098000000C01400010014000140140001801401B
:10099000001C0140002001400000014000002042F6
:1009A000DC002042DC48006840F00100DA490860C1
:1009B00008464068D9490840D74948600846006859
:1009C000D7490840D44908600846006820F48020D0
:1009D00008600846406820F4FE0048604FF41F009D
:1009E00088607047CC49096821F48031CA4A116097
:1009F0001146096821F480211160B0F5803F03D0D1
:100A0000B0F5802F0ED106E0C349096841F480316A
:100A1000C14A116007E0C049096841F4A021BE4AFB
:100A2000116000E000BF00BF704710B50146002212
:100A3000002300204A11012A02D1B74C236806E0A6
:100A4000022A02D1B44C236A01E0B34C636A01F07C
:100A50001F02012494401C4201D0012000E000202C
:100A600010BD70B500240025002600BF3120FFF71F
:100A7000DCFF0646641CB4F5A06F01D0002EF5D053
:100A80003120FFF7D2FF08B1012500E000252846FC
:100A900070BD01460020A04A106820F0F80040EA2E
:100AA000C100106070479F490860704702460020EF
:100AB000994B586820F47C1042EA01031843964B86
:100AC0005860704797490866704701460020924A6F
:100AD000506820F003000843506070478E4840681B
:100AE00000F00C007047014600208B4A506820F04F
:100AF000F00008435060704701460020864A506865
:100B000020F4E06008435060704701460020824AAC
:100B1000506820F4605040EAC1005060704729B12D
:100B20007D4A527A02437C4B5A7206E07A4A527AE4
:100B3000C343DBB21A40784B5A7270477A49086057
:100B4000704701460020744A506820F44040084332
:100B5000506070470021754A11706F4A82F820106A
:100B6000012802D0042808D103E001216F4A117046
:100B700004E005216D4A117000E000BF00BF70471E
:100B80006B49086070476449096A0143624A11620F
:100B90007047674944390860704730B5002100222A
:100BA000002400235C4D6D6805F00C0121B104297F
:100BB00005D0082923D105E05E4D056022E05E4D99
:100BC00005601FE0544D6D6805F47012524D6D685C
:100BD00005F48034022505EB92421CB9574D55436C
:100BE00005600BE04C4D6D6815F4003F03D0544D8B
:100BF0005543056002E0504D5543056002E04D4D00
:100C0000056000BF00BF444D6D6805F0F0010909A3
:100C10004C4D6B5C0568DD4045603F4D6D6805F4EB
:100C2000E061090A474D6B5C4568DD4085603A4DDF
:100C30006D6805F46051C90A424D6B5C4568DD4042
:100C4000C560354D6D6805F44041890B3E4D6B5CC8
:100C5000C568B5FBF3F5056130BD29B12E4A52696F
:100C600002432D4B5A6104E02B4A526982432A4BBE
:100C70005A61704729B1284A92690243264B9A610A
:100C800004E0254A92698243234B9A61704729B157
:100C9000214AD2690243204BDA6104E01E4AD2693C
:100CA00082431D4BDA61704729B11B4AD268024367
:100CB000194BDA6004E0184AD2688243164BDA60B6
:100CC000704729B1144A12690243134B1A6104E0B8
:100CD000114A12698243104B1A6170471449403916
:100CE000086070470F49C86470470B49C871704766
:100CF0000948406A40F080700749486270470146E1
:100D00000020054A92680A4201D0012000E000203C
:100D10007047014988727047001002400000FFF8D8
:100D2000FFFFF6FE00004242D8004242201002407F
:100D30008004424200127A00001BB70000093D0007
:100D4000808D5B00140000202400002010B50446B4
:100D5000FC48844209D101218803FFF7A5FF002147
:100D60004FF48040FFF7A0FF32E0F748844209D1FA
:100D700001214804FFF7A5FF00214FF40030FFF7E1
:100D8000A0FF25E0F148844209D101218804FFF742
:100D900098FF00214FF48020FFF793FF18E0EC4804
:100DA000844209D10121C804FFF78BFF00214FF4D1
:100DB0000020FFF786FF0BE0E648844208D10121BE
:100DC0000805FFF77EFF00214FF48010FFF779FF41
:100DD00010BD2DE9F04786B005460E460024A24618
:100DE00000BFA1460027B08900B100BF2F462C8A62
:100DF0004CF6FF700440F08804432C82AC894EF618
:100E0000F3100440B08831890843718908430443D2
:100E1000AC81AC8A4FF6FF400440B0890443AC82F9
:100E200001A8FFF7BAFEC748874202D1DDF810A03B
:100E300001E0DDF80CA0A88910F4004F08D00AEBFF
:100E4000CA0000EB0A1031684900B0FBF1F807E076
:100E50000AEBCA0000EB0A1031688900B0FBF1F818
:100E60006420B8FBF0F004012009642101FB108923
:100E7000A88910F4004F08D0322000EBC900B0FB65
:100E8000F1F000F00700044308E0322000EB091005
:100E90006421B0FBF1F000F00F0004432C8106B098
:100EA000BDE8F0874FF41651016000218180C180B8
:100EB00001810C21418100218181704710B50246DA
:100EC0000020108A4FF2FF0318400B884C88234300
:100ED0008C882343CC8823431843108210BD002103
:100EE000018041808180C180704721B1828942F4B4
:100EF0000052828104E082894DF6FF731A4082819C
:100F00007047F0B503460024002600250020A1F517
:100F100010676A3F00D100BF1846C1F3421401F0C8
:100F20001F06012707FA06F5012C01D10C3004E059
:100F3000022C01D1103000E014301AB107682F43A1
:100F4000076002E00768AF430760F0BD10B51AB153
:100F5000838A0B43838204E0838ACC43A4B2234078
:100F6000838210BD028A4FF6F0731A400282028A11
:100F70000A430282704782894FF2FF731A408281CE
:100F800082890A438281704721B1828942F002023C
:100F9000828104E082894FF6FD731A408281704796
:100FA000028A4FF6DF731A400282028A0A430282E3
:100FB000704721B1028A42F48042028204E0028A30
:100FC0004BF6FF731A4002827047C1F30802828019
:100FD000704701468888C0F308007047818941F056
:100FE000010181817047028BD2B20283028B42EAF7
:100FF000012202837047028B02F47F420283028B3C
:101000000A430283704721B1828A42F02002828221
:1010100004E0828A4FF6DF731A408282704721B162
:10102000828A42F01002828204E0828A4FF6EF73D5
:101030001A408282704721B1828A42F0080282827D
:1010400004E0828A4FF6F7731A408282704721B11A
:10105000828942F40042828103E08289C2F30E0257
:101060008281704721B1828A42F40062828204E068
:10107000828A4FF2FF731A4082827047828A4FF64B
:10108000FB731A408282828A0A438282704721B1AE
:10109000828A42F00202828204E0828A4FF6FD7365
:1010A0001A408282704702460020B1F5007F00D1CD
:1010B00000BF13880B4201D0012000E000207047E0
:1010C00001F40072B2F5007F00D100BFCA43028074
:1010D000704770B502460024002300250020A1F5CA
:1010E00010666A3E00D100BFC1F3421501F01F0334
:1010F000012606FA03F3012D02D19689334006E05A
:10110000022D02D1168A334001E0968A33400C1238
:10111000012606FA04F41688344013B10CB10120FC
:1011200000E0002070BD10B500220023A1F510647E
:101130006A3C00D100BF0A1201249440A3B2DC43F0
:10114000048010BD003801400044004000480040C9
:10115000004C00400050004070B504460D46E1B21E
:101160003848FFF732FF00BF80213648FFF79BFF6A
:101170000028F9D0204670BD00B587B0012144F2A7
:101180000400FFF777FD4FF40070ADF81800182049
:101190008DF81B0003208DF81A0006A92A48FFF7D6
:1011A000B5FA4FF48060ADF8180004208DF81B00EC
:1011B00006A92548FFF7AAFA4FF4E1300290002073
:1011C000ADF80C00ADF80E00ADF81000ADF814004D
:1011D0000C20ADF8120002A91A48FFF7FAFD012110
:1011E0001848FFF782FE012240F225511548FFF70B
:1011F00088FE25208DF8040001208DF805008DF86B
:1012000006008DF8070001A8FFF729F907B000BD17
:101210002DE9F04107460C46154600260DE014F86E
:10122000011B3846FFF7D1FE00BF40213846FFF7CB
:101230003AFF0028F9D0701CC6B2AE42EFDBBDE821
:10124000F0810000003801400008014000B587B07F
:1012500001210420FFF70EFD01214804FFF717FDCF
:101260000420ADF8180018208DF81B0003208DF81D
:101270001A0006A92B48FFF749FA0820ADF8180014
:1012800004208DF81B0006A92648FFF73FFA4FF40B
:10129000E13002900020ADF80C00ADF80E00ADF882
:1012A0001000ADF814000C20ADF8120002A91E4881
:1012B000FFF78FFD01211C48FFF717FE012240F2C6
:1012C00025511948FFF71DFE26208DF80400032044
:1012D0008DF8050002208DF8060001208DF807002A
:1012E00001A8FFF7BCF807B000BD2DE9F0410746A3
:1012F0000C46154640210C48FFF7E2FE00260CE0A4
:1013000014F8011B3846FFF760FE00BF4021384645
:10131000FFF7C9FE0028F9D0761CAE42F0D3BDE835
:10132000F0810000000801400044004008B50121A0
:101330001020FFF79FFC4FF4B060ADF800000320D1
:101340008DF8020010208DF8030069468548FFF7EC
:10135000DDF901210420FFF78DFC4FF48050ADF83A
:10136000000003208DF8020010208DF8030069466C
:101370007D48FFF7CBF908BD10B57CA17D4803F08F
:10138000F4FF30B180217748FFF76BFA01207A49EA
:1013900008707AA1774803F0E8FF38B14FF4807104
:1013A0007048FFF75EFA01207649087076A171480F
:1013B00003F0DBFF38B14FF480616A48FFF751FA60
:1013C00001207349087073A16A4803F0CEFF38B159
:1013D0004FF480516448FFF744FA01206F490870C8
:1013E0006FA1644803F0C1FF30B180215D48FFF771
:1013F0003AFA0020604908706BA15E4803F0B5FF1F
:1014000038B14FF480715748FFF72DFA00205D493D
:10141000087067A1574803F0A8FF38B14FF4806106
:101420005048FFF720FA00205949087062A151483E
:1014300003F09BFF38B14FF480514B48FFF713FA8C
:1014400000205649087010BD70B505460C4695B38E
:1014500080214448FFF707FA4FF480714148FFF7B5
:1014600002FA4FF480613F48FFF7FDF94FF48051D5
:101470003D48FFF7F8F914F0010F03D080213948F7
:10148000FFF7EFF914F0020F04D04FF480713548E4
:10149000FFF7E7F914F0040F04D04FF480613148EE
:1014A000FFF7DFF914F0080F25D04FF480512E48D4
:1014B000FFF7D7F91FE0FFE714F0010F03D08021F9
:1014C0002848FFF7D0F914F0020F04D04FF48071D0
:1014D0002448FFF7C8F914F0040F04D04FF48061DA
:1014E0002048FFF7C0F914F0080F04D04FF48051E2
:1014F0001D48FFF7B8F970BD10B580211948FFF7F6
:10150000A3F918B101201C49087002E000201A4913
:1015100008704FF480511448FFF796F918B1012074
:101520001E49087002E000201C4908704FF48071C9
:101530000C48FFF789F918B101201249087002E040
:101540000020104908704FF480610648FFF77CF9CD
:1015500018B101200E49087002E000200C49087003
:1015600010BD000000100140000801404C4544310E
:101570003100000058040020340000204C45443263
:1015800031000000370000204C454433310000009A
:10159000350000204C454434310000003600002066
:1015A0004C454431300000004C45443230000000CE
:1015B0004C454433300000004C45443430000000BA
:1015C000002107E0002100E0491C42F6E062914260
:1015D000FAD3401E0028F5D170471FB50121102015
:1015E000FFF748FB4FF46050ADF80C0003208DF876
:1015F0000E0048208DF80F0003A99248FFF786F8E7
:1016000001212020FFF736FB0420ADF80C00032059
:101610008DF80E0048208DF80F0003A98A48FFF7C7
:1016200075F801210846FFF725FB02210320FFF78B
:1016300081F90420019000208DF808000C208DF81D
:10164000090001208DF80A0001A8FEF77FFF08209D
:101650008DF8000006208DF8010002208DF80200B0
:1016600001208DF803006846FEF7F9FE0B210220E9
:10167000FFF760F94FF40060019000208DF808003A
:101680000C208DF8090001208DF80A0001A8FEF752
:101690005DFF28208DF8000006208DF80100002055
:1016A0008DF8020001208DF803006846FEF7D7FE92
:1016B0000C210220FFF73EF94FF4805001900020EA
:1016C0008DF808000C208DF8090001208DF80A0023
:1016D00001A8FEF73BFF28208DF8000006208DF8BA
:1016E000010001208DF802008DF803006846FEF726
:1016F000B6FE0D210220FFF71DF94FF400500190B6
:1017000000208DF808000C208DF8090001208DF8CC
:101710000A0001A8FEF71AFF28208DF80000062015
:101720008DF8010003208DF8020001208DF80300E0
:101730006846FEF794FE1FBD10B50F20FFF740FF6F
:101740004FF40060FEF768FF012815D1C1023D4843
:10175000FFF76DF880B94FF480713A48FFF774F8DD
:1017600028B14FF480713748FFF77DF804E04FF45B
:1017700080713448FFF775F84FF48050FEF74CFF46
:10178000012815D101032F48FFF751F880B94FF414
:1017900080512E48FFF758F828B14FF480512B485C
:1017A000FFF761F804E04FF480512848FFF759F83B
:1017B0004FF40050FEF730FF012815D141032148B6
:1017C000FFF735F880B94FF480611E48FFF73CF809
:1017D00028B14FF480611B48FFF745F804E04FF44F
:1017E00080611848FFF73DF84FF40060FEF725FFD1
:1017F0004FF48050FEF721FF4FF40050FEF71DFF1D
:1018000010BD10B50F20FFF7DBFE0420FEF704FF2C
:10181000012812D104210C48FFF709F868B980218A
:101820000848FFF711F820B180210648FFF71BF8A0
:1018300003E080210348FFF714F80420FEF7FDFEC3
:1018400010BD0000001001400014014000080140DC
:10185000FE480068704770B504460D462CB9AC428E
:1018600001D0012070BD0020FCE70DB90120F9E78F
:1018700005E0207808B90020F4E7641C6D1C20788E
:1018800003F02CFD0646287803F028FD8642F0D0B0
:10189000207803F023FD0646287803F01FFD301A58
:1018A000E0E770B50446204603F08AFD451C284653
:1018B000E7490968884706460EB9002070BD2A46E8
:1018C0002146304603F010FD3046F7E730B9E149D4
:1018D000DF4A1160E049E14A11607047016809B1CF
:1018E000016800E0DB49DA4A1160416809B14168EA
:1018F00000E0D949D94A116000BFEEE710B52820B1
:10190000D3490968884704461CB12821204603F0C2
:1019100012FD204610BD70B5044622E02568E0683F
:1019200010F4807F04D1A06810B1A068FFF7F3FF26
:10193000E06810F4807F05D1206918B1C74920699B
:1019400009688847E06810F4007F05D1206A18B163
:10195000C249206A096888472046C0490968884703
:101960002C46002CDAD170BD2DE9F04F8BB08346A8
:101970008A460020044605460026B94F00218846C5
:1019800089460990012008909AF800002D2802D17C
:10199000B44F0AF1010A9AF80000302801D10AF187
:1019A000010A9AF80000312822DB9AF80000392851
:1019B0001EDC00BF1AF8011BA1F1300003F036FE57
:1019C0000022A94BCDE906012046294603F0BEFDC1
:1019D000CDE90401DDE9062303F012FD04460D46BE
:1019E0009AF80000302803DB9AF800003928E1DD7E
:1019F0009AF800002E2830D19AF8010030282CDB0C
:101A00009AF80100392828DC0AF1010A00BF1AF807
:101A1000011BA1F1300003F009FE0022924BCDE939
:101A200006012046294603F091FDCDE90401DDE9D8
:101A3000062303F0E5FC04460D460022884B404691
:101A4000494603F07DFD804689469AF8000030281B
:101A500003DB9AF800003928D9DD9AF800006528E0
:101A600003D09AF80000452823D10AF1010A9AF818
:101A700000002B2802D10AF1010A08E09AF80000C0
:101A80002D2804D14FF0FF3008900AF1010A08E038
:101A90001AF8010B3038099901EB810100EB410084
:101AA00009909AF80000302803DB9AF800003928E2
:101AB000EEDDDDE9082101FB02F003F0B7FD42464F
:101AC0004B46CDE9000103F09BFC02460B46CDE9F5
:101AD00002010020644904F0C7FD22462B46CDE9EF
:101AE00006013046394603F031FDCDE90401DDE958
:101AF000062303F02BFD04460D46CBE906452046A0
:101B0000294603F0A4FDCBF814000320CBF80C0009
:101B100050460BB0BDE8F08F0146491E41EA610115
:101B200041EAA10141EA211141EA212141EA214191
:101B3000481C70472DE9F04104460E460CB1206860
:101B400010B90020BDE8F081A06806446068B0428A
:101B500003DBA16820680844F4E73046FFF7DCFFA8
:101B6000074638463A490968884705463DB93B4922
:101B7000206809688847002060602060E2E725B19E
:101B80002846D4E9001203F0AFFB34492068096805
:101B9000884767602560A0682844D3E770B504468D
:101BA0000CB1206808B9002070BDA16820684518F4
:101BB000284603F005FCA1680844F5E72DE9FC4739
:101BC000824688464FF00009DAE9064500221346AE
:101BD0002046294603F070FD15D1B8F1000F05D05D
:101BE00002214046FFF7A6FF814604E00220184983
:101BF000096888478146B9F1000F03D01BA000880F
:101C0000A9F80000A3E0DAF8140003F00FFD06467F
:101C100022462B4603F094FC21F000410022144B95
:101C2000CDE9000103F048FD40D8124A124B20468E
:101C3000294603F041FD39D80022104B20462946A1
:101C400003F04EFD32D8B8F1000F19E0400000203B
:101C500038000020FD650008AD6500083C0000204C
:101C60000000F03F0000F0BF000024403000000002
:101C70000000B03C0000C0FFFFFFDF410000E0C1FA
:101C800005D015214046FFF755FF814604E0152099
:101C9000FB49096888478146B9F1000F57D0F9A17F
:101CA0004846DAF8142003F019FF50E0B8F1000FAD
:101CB00005D040214046FFF73DFF814604E040202B
:101CC000EF49096888478146B9F1000F3FD02046A7
:101CD000294604F0FDFB064622462B4603F030FC65
:101CE00021F000410022E84BCDE9000103F0E4FCC3
:101CF0000FD825F000412646E44AE54B304603F074
:101D0000DBFC06D222462B46E2A1484603F0E6FE63
:101D10001DE025F000412646E04AE14B304603F045
:101D2000CBFC07D325F000410022DE4B304603F008
:101D3000D7FC06D222462B46DBA1484603F0CEFE56
:101D400005E022462B46D9A1484603F0C7FE484687
:101D5000BDE8FC87014600220878302806DB0878B9
:101D6000392803DC08783038024415E00878412827
:101D700006DB0878462803DC0878373802440BE095
:101D80000878612806DB0878662803DC087857386D
:101D9000024401E0002070471201491C08783028F5
:101DA00006DB0878392803DC08783038024415E06F
:101DB0000878412806DB0878462803DC087837389D
:101DC00002440BE00878612806DB0878662803DC0B
:101DD00008785738024401E00020DCE71201491C72
:101DE0000878302806DB0878392803DC0878303892
:101DF000024415E00878412806DB0878462803DC11
:101E00000878373802440BE00878612806DB087848
:101E1000662803DC08785738024401E00020BAE75E
:101E20001201491C0878302806DB0878392803DCC1
:101E300008783038024415E00878412806DB087835
:101E4000462803DC0878373802440BE0087861281C
:101E500006DB0878662803DC08785738024401E07E
:101E6000002098E7104696E72DE9F05F8346884604
:101E700008F10104002798F80000222805D08C48BA
:101E8000C0F800800020BDE8F09F04E014F8011BBA
:101E90005C2900D1641C2078222804D0207810B15D
:101EA000781C0700F2D1781C75490968884781467B
:101EB000B9F1000F01D10020E5E708F101044D461A
:101EC0009EE020785C2804D014F8010B05F8010B83
:101ED00096E0641C2078722818D006DC622809D0AD
:101EE00066280BD06E287DD10CE0742812D075289E
:101EF000F9D113E0082005F8010B7FE00C2005F86C
:101F0000010B7BE00A2005F8010B77E00D2005F8B6
:101F1000010B73E0092005F8010B6FE0601CFFF76F
:101F200019FF0646241DB6F55C4F02D3B6F5604F87
:101F300000D306B962E0B6F5584F1CD3B6F55C4F36
:101F400019D260785C2802D1A078752800D055E0BD
:101F5000E01CFFF7FFFE8246A41DBAF55C4F02D3DA
:101F6000BAF5604F00D349E0C6F30901504661F36A
:101F70009F2000F580360427802E01D2012708E03B
:101F8000B6F5006F01D2022703E0B6F5803F00D21C
:101F900003273D44012F20D0022F15D0032F0AD054
:101FA000042F24D106F0BF0040F08001681E0546D2
:101FB0000170B60900BF06F0BF0040F08001681E46
:101FC00005460170B60900BF06F0BF0040F0800171
:101FD000681E05460170B60900BF3648C05D304333
:101FE000C1B200E006E0681E0546017000BF00BFF8
:101FF0003D4403E0207805F8010B00BF00BF641CDE
:102000002078222803D0207800287FF45AAF0020BF
:1020100028702078222800D1641CCBF8109004206E
:10202000CBF80C0020462EE72DE9F05F804689466C
:102030000027BB46454611E02878002802DD2878B5
:10204000202805DB2878222802D028785C2801D1B6
:10205000012000E0002040EA0B0B6D1C28780028CE
:10206000EAD1BBF1000F3FD1A5EB0807B9F1000F92
:1020700022D0F91C4846FFF75DFD064621E000002E
:1020800038000020256400000000B03C44F3C2E4A6
:10209000E4E9634C252E3066000000008DEDB5A00C
:1020A000F7C6B03E65CDCD41256500002566000030
:1020B00040000020A0700008F81CF7490968884714
:1020C000064616B90020BDE8F09F3446222004F8E9
:1020D000010B4146204603F07BF92220E055002108
:1020E000781C21543046EEE7B8F1000F16D1B9F153
:1020F000000F05D003214846FFF71CFD064604E00B
:102100000320E5490968884706460EB90020DAE74A
:10211000E2A1304603F05CF93046D4E7454695F835
:1021200000A00DE05146DEA003F041F908B17F1C8C
:1021300003E0BAF1200F00DA7F1D6D1C95F800A0B6
:10214000BAF1000F02D0781C0700EBD1B9F1000FF3
:1021500005D0F91C4846FFF7EDFC064604E0F81CE4
:10216000CD490968884706460EB90020ABE73446DA
:102170004546222004F8010B47E028781F280ADD95
:102180002878222807D028785C2804D015F8010B7D
:1021900004F8010B39E05C2004F8010B15F8011B71
:1021A0008A460C2919D006DC082912D0092920D02A
:1021B0000A2922D115E00D2917D0222905D05C2942
:1021C0001BD15C2004F8010B1EE0222004F8010B57
:1021D0001AE0622004F8010B16E0662004F8010BF7
:1021E00012E06E2004F8010B0EE0722004F8010BDF
:1021F0000AE0742004F8010B06E05246AAA120462A
:1022000003F06CFC641D00BF00BF28780028B4D127
:10221000222004F8010B002004F8010B304652E79D
:1022200070B504460D4629462069FFF7FDFE70BDD6
:1022300000E0401C20B1017811B101782029F8DDBF
:1022400070472DE9F04706460C4620787B2804D0DD
:10225000974804600020BDE8F0870620F060601C0D
:10226000FFF7E6FF044620787D2801D1601CF2E7E5
:10227000FFF744FB0546B060B06808B90020EAE704
:102280002046FFF7D5FF804641462846FFF7ECFD84
:102290000746FFF7CDFF04460CB90020DBE72869AD
:1022A00028620020286120783A2803D08048046002
:1022B0000020D0E7601CFFF7BBFF80464146284660
:1022C00000F09BF80746FFF7B3FF04460CB9002067
:1022D000C1E732E0FFF712FB07460FB90020BAE76B
:1022E0002F607D603D46601CFFF7A2FF8146494696
:1022F0002846FFF7B9FD8046FFF79AFF04460CB960
:102300000020A8E7286928620020286120783A2860
:1023100003D06748046000209DE7601CFFF788FF3A
:1023200081464946284600F068F88046FFF780FF5E
:1023300004460CB900208EE700BF20782C28C9D0B5
:1023400020787D2801D1601C85E759480460002071
:1023500081E72DE9F04705460C4620785B2804D03C
:10236000534804600020BDE8F0870520E860601C49
:10237000FFF75EFF044620785D2801D1601CF2E77C
:10238000FFF7BCFA0646A860A86808B90020EAE78B
:102390002046FFF74DFF80464146304600F02DF8BD
:1023A0000746FFF745FF04460CB90020DBE718E0BD
:1023B000FFF7A4FA07460FB90020D4E737607E6024
:1023C0003E46601CFFF734FF81464946304600F028
:1023D00014F88046FFF72CFF04460CB90020C2E732
:1023E00000BF20782C28E3D020785D2801D1601C24
:1023F000B9E72F4804600020B5E770B505460C46E4
:102400000CB9002070BD04222AA1204602F0E9FF89
:1024100018B90220E860201DF4E7052227A1204614
:1024200002F0DFFF18B90020E860601DEAE704222F
:1024300024A1204602F0D5FF20B90120E8606861A0
:10244000201DDFE72078222804D121462846FFF707
:102450000BFDD7E720782D2805D02078302807DB22
:102460002078392804DC21462846FFF77DFAC9E7A1
:1024700020785B2804D121462846FFF76AFFC1E790
:1024800020787B2804D121462846FFF7DAFEB9E7F9
:10249000074804600020B5E7380000202222000031
:1024A000225C080C0A0D0900752530347800000004
:1024B000400000206E756C6C0000000066616C735B
:1024C0006500000074727565000000002DE9F0479A
:1024D00080460D4616460024FFF710FA07460020F6
:1024E000FE4908600FB9BDE8F0874046FFF7A0FE3F
:1024F000814649463846FFF780FF044624B93846EE
:10250000FFF709FA0020EEE766B12046FFF790FEDC
:102510000446207830B13846FFF7FDF9EF480460F3
:102520000020E0E705B12C603846DCE710B5044632
:10253000002211462046FFF7C9FF10BD2DE9FF4FCD
:1025400089B0884616461F460020089007900690DE
:102550004FF0070A00250998D0F808900020029053
:102560000190009004E00298401C0290D9F800907D
:10257000B9F1000FF7D10298002835D157B116B143
:1025800008F1040000E0032001463846FFF7D2FAC4
:10259000069009E016B108F1040100E003210846A5
:1025A000CF49096888470690069818B900200DB0F1
:1025B000BDE8F08F069C7B2004F8010B66B10A2071
:1025C00004F8010B002503E0092004F8010B6D1C41
:1025D000A8F10100A842F7DC7D2004F8010B0020DF
:1025E00004F8010B0698E2E7002F77D0BD680EB122
:1025F000022000E0012082460AF101013846FFF77F
:1026000099FA04460CB90020D1E77B2004F8010BAD
:1026100016B10A2004F8010B00202070B86850445D
:10262000B8600998D0F8089008F1010868E0B6B1E0
:1026300041463846FFF77EFA04460CB90020B6E75B
:102640000020039005E0092004F8010B0398401CCA
:10265000039003984045F6DBB8684044B8603946BB
:10266000D9F82000FFF7E0FC3846FFF797FAB8608A
:102670000EB1022000E00120824651463846FFF7A5
:1026800059FA04460CB9002091E73A2004F8010BEE
:1026900016B1092004F8010BB8685044B8603B46F5
:1026A00032464146484600F078FA3846FFF776FA57
:1026B000B8600EB1012000E00020D9F8001009B187
:1026C000012100E0002100EB010A0AF10101384676
:1026D000FFF730FA044614B9002068E734E0D9F86F
:1026E000000010B12C2004F8010B16B10A2004F8E8
:1026F000010B00202070B8685044B860D9F80090F1
:10270000B9F1000F93D116B108F1010000E00220E9
:1027100001463846FFF70EFA04460CB9002046E79A
:102720004EB1002503E0092004F8010B6D1CA8F14F
:102730000100A842F7DC7D2004F8010B0020207086
:1027400038682844069005E10299880064490968C0
:1027500088470890089808B9002028E7029988005F
:102760005F49096888470790079828B95D49089824
:102770000968884700201AE702988100089802F04B
:10278000DAFD02988100079802F0D5FD0998D0F88B
:10279000089008F1010806B1C2442EE00021D9F8E2
:1027A0002000FFF741FC0490079941F82500002321
:1027B00032464146484600F0F0F929466D1C059026
:1027C000089A42F82100049898B1059888B10598B4
:1027D00002F0F6FD8346049802F0F2FD0BEB0001D7
:1027E000891C16B108F1020000E000200844824470
:1027F00001E001200190D9F80090B9F1000FCDD18E
:10280000019820B9504636490968884706900698CD
:1028100008B901200190019818B3002514E0079829
:1028200050F8250028B1079951F825002D4909686D
:102830008847089850F8250028B1089951F82500D4
:102840002849096888476D1C02988542E7DB2549BD
:10285000079809688847234908980968884700202D
:10286000A5E67B21069801700698441C16B10A2043
:1028700004F8010B0020207000254FE05EB100201D
:10288000039005E0092004F8010B0398401C039015
:1028900003984045F6DB079951F8250002F090FDBA
:1028A0000090079850F825102046009A02F01CFD71
:1028B000009804443A2004F8010B16B1092004F8EA
:1028C000010B089850F82510204602F081FD089968
:1028D00051F8250002F074FD044405E0400000209A
:1028E000380000203C0000200298401EA84202D080
:1028F0002C2004F8010B16B10A2004F8010B00206B
:102900002070079951F82500F64909688847089909
:1029100051F82500F349096888476D1C02988542E3
:10292000ACDBF049079809688847EE4908980968C0
:1029300088474EB1002503E0092004F8010B6D1C07
:10294000A8F10100A842F7DC7D2004F8010B00206B
:1029500004F8010B06982AE62DE9FF4F85B0924650
:102960001E464FF0000B052003900598D0F8088014
:10297000D946002500200290019003E009F10109E9
:10298000D8F80080B8F1000FF8D1B9F1000F16D1D6
:102990002EB103213046FFF7CDF8834604E0032033
:1029A000D149096888478346BBF1000F03D0CFA106
:1029B000584602F00DFD584609B0BDE8F08F002ED4
:1029C00057D0B56801213046FFF7B4F804460CB97A
:1029D0000020F1E75B202070B068401CB0600598D3
:1029E000D0F808802EE0334652460699491C4046EE
:1029F00000F0D3F83046FFF7D1F8B060D8F8000007
:102A0000F0B1BAF1000F01D0022000E001200390E4
:102A10000399491C3046FFF78DF804460CB9002095
:102A2000CAE72C2004F8010BBAF1000F02D02020D5
:102A300004F8010B00202070B16803980844B060CE
:102A4000D8F80080B8F1000F02D002980028CAD050
:102A500002213046FFF76EF804460CB90020ABE7C0
:102A60005D2004F8010B00202070306800EB050B9E
:102A700091E04FEA89009C490968884707460FB9E9
:102A8000002099E74FEA8901384602F054FC059886
:102A9000D0F8088021E0002352460699491C4046A0
:102AA00000F07BF8049029466D1C049847F821003B
:102AB000049870B1049802F083FC801CBAF1000FF6
:102AC00001D0012100E00021014403980844039053
:102AD00001E001200290D8F80080B8F1000F02D088
:102AE00002980028D7D0029820B97F490398096836
:102AF00088478346BBF1000F01D101200290029864
:102B000090B1002508E057F8250020B157F82500BE
:102B10007449096888476D1C4D45F4DB3846714996
:102B200009688847002047E75B208BF800000BF11D
:102B3000010400202070002521E057F8250002F054
:102B40003FFC019057F825102046019A02F0CCFB7B
:102B500001980444A9F10100A8420AD02C2004F8ED
:102B6000010BBAF1000F02D0202004F8010B002065
:102B7000207057F825005B49096888476D1C4D4552
:102B8000DBDB38465749096888475D2004F8010BAC
:102B9000002004F8010B58460EE72DE9F0410446E9
:102BA0000F4690461D46002614B90020BDE8F0816E
:102BB000002D4AD0E068C0B2072845D2DFE800F017
:102BC000101C04282E343C0005212846FEF7B2FFD5
:102BD000064626B1AFF22471304602F0F9FB33E02D
:102BE00006212846FEF7A6FF064626B1AFF234714D
:102BF000304602F0EDFB27E005212846FEF79AFF5C
:102C0000064626B1AFF24471304602F0E1FB1BE00C
:102C100029462046FEF7D2FF064615E02946204603
:102C2000FFF7FEFA06460FE02B464246394620469D
:102C3000FFF792FE064607E02B46424639462046FD
:102C4000FFF77CFC064600BF38E0E068C0B207280A
:102C500033D2DFE800F00A1004161C222A00AFF27B
:102C6000AC70FEF71EFE064627E0AFF2B070FEF72E
:102C700018FE064621E0AFF2B470FEF712FE0646DB
:102C80001BE000212046FEF799FF064615E00021D3
:102C90002046FFF7C5FA06460FE0002342463946B4
:102CA0002046FFF759FE064607E000234246394614
:102CB0002046FFF743FC064600BF00BF304675E7DD
:102CC00010B504460023012219462046FFF765FF90
:102CD00010BD10B5044600231A4619462046FFF7DA
:102CE0005CFF10BD3C000020380000205B5D000050
:102CF000FEB505460C4616462046FB49096888473E
:102D000000900194002002906B4632460021284634
:102D1000FFF743FFFEBD01468A68002001E0401C2A
:102D20001268002AFBD170470246906801E0491EF4
:102D3000006808B10029FADC704770B505460E46F8
:102D4000AC6800E024682CB13146206AFEF783FDB0
:102D50000028F7D1204670BD01604860704770B50B
:102D60000546FEF7CBFD04460CB9002070BD2822B5
:102D70002946204602F0B8FA00202062E06840F4BC
:102D80008070E0600020606020602046EEE770B553
:102D900005460E46AC6806B970BD0CB9AE6009E0D8
:102DA00000E0246814B120680028FAD1314620469A
:102DB000FFF7D2FF00BFEFE770B506460D46144699
:102DC00004B970BD206A18B1C849206A09688847EB
:102DD0002846FEF766FD206221463046FFF7D7FF02
:102DE00000BFEEE770B506460D46144604B970BD47
:102DF000E06810F4007F05D1206A18B1BB49206A51
:102E0000096888472562E06840F40070E060214668
:102E10003046FFF7BCFF00BFE9E770B505460C463A
:102E20002046FFF79CFF064631462846FFF7AFFFD6
:102E300070BD2DE9F04105460E4614462046FFF7C9
:102E40008EFF07463A4631462846FFF7B5FFBDE8F4
:102E5000F08110B502460B46916801E009685B1EDF
:102E600009B1002BFADC09B9002010BD486810B187
:102E7000D1E900042060086810B1D1E90040606029
:102E80009068884201D1086890600020086048601E
:102E90000846EAE770B504460D4629462046FFF786
:102EA000D8FF0646FEF737FD70BD2DE9F041054617
:102EB0000F460026AC6801E0761C24682CB1394628
:102EC000206AFEF7C8FC0028F6D12CB1314628460E
:102ED000FFF7BFFFBDE8F0810020FBE770B50446B7
:102EE0000D4629462046FFF7E0FF0646FEF713FD94
:102EF00070BD2DE9F04106460F461446B56801E065
:102F00002D687F1E0DB1002FFADC2DB92146304609
:102F1000FFF73DFFBDE8F0812560686860606C6088
:102F2000B068A84201D1B46001E06068046000BFED
:102F3000F0E72DE9F04106460F461446B56801E07A
:102F40002D687F1E0DB1002FFADC0DB9BDE8F081B0
:102F50002868206068686060206808B12068446064
:102F6000B068A84201D1B46001E06068046000204C
:102F7000686028602846FEF7CEFC00BFE6E72DE932
:102F8000F04105460E4617464FF00008AC6802E0D7
:102F900008F1010824682CB13146206AFEF75BFC79
:102FA0000028F5D144B13046FEF77BFC38623A4642
:102FB00041462846FFF7BDFFBDE8F08110B5FEF79A
:102FC0009DFC04460CB10220E060204610BD10B507
:102FD000FEF794FC04460CB10120E060204610BDD1
:102FE00010B5FEF78BFC04460CB10020E0602046D3
:102FF00010BD70B50546FEF781FC044624B10DB145
:10300000012000E00020E060204670BD70B504465D
:103010000D46FEF773FC064646B10320F060C6E994
:1030200006452046294602F012FB7061304670BD0D
:1030300070B50546FEF762FC04462CB10420E06042
:103040002846FEF72EFC2061204670BD10B5FEF725
:1030500055FC04460CB10520E060204610BD10B5BB
:10306000FEF74CFC04460CB10620E060204610BD83
:103070002DE9F05F81468A460027BB46FFF7E6FF51
:103080008046002611E059F8260002F0CFFA0446E7
:10309000FFF7BCFF074616B9C8F8087003E03946C9
:1030A0005846FFF759FEBB46761CB8F1000F01D019
:1030B0005645E8DB4046BDE8F09F2DE9F05F8146CC
:1030C0008A460027BB46FFF7C1FF8046002615E071
:1030D00059F8260002F0DAFA0446FFF797FF074690
:1030E00036B9C8F8087007E0380000203C0000201E
:1030F00039465846FFF730FEBB46761CB8F1000F44
:1031000001D05645E4DB4046BDE8F09F2DE9F0478D
:10311000074688460025A946FFF798FF0646002483
:1031200010E007EBC400D0E900211046FFF76EFF66
:1031300005460CB9B56003E029464846FFF70CFE8A
:10314000A946641C0EB14445EBDB3046BDE8F08770
:103150002DE9F047074688460025A946FFF776FF88
:10316000064600240DE057F82400FFF761FF0546EE
:103170000CB9B56003E029464846FFF7EDFDA946C6
:10318000641C0EB14445EEDB3046BDE8F0872DE906
:10319000F047054689464FF0000815B90020BDE804
:1031A000F087FEF7ABFB04460CB90020F7E7E868B0
:1031B00020F48070E06068696061D5E90601C4E9C7
:1031C0000601286950B12869FEF76BFB2061206970
:1031D00020B92046FEF79FFB0020E0E7286A50B1A7
:1031E000286AFEF75EFB2062206A20B92046FEF7BF
:1031F00092FB0020D3E7B9F1000F01D12046CEE7C2
:10320000AF6816E001213846FFF7C1FF064626B930
:103210002046FEF780FB0020C1E7B8F1000F05D083
:10322000C8F80060C6F80480B04601E0A660B04669
:103230003F68002FE6D12046B1E7014655E002780D
:10324000202A01D1401C50E00278092A01D1401CFB
:103250004BE002780D2A01D1401C46E002780A2A90
:1032600001D1401C41E002782F2A0BD142782F2A4D
:1032700008D100E0401C0278002A36D002780A2AE1
:1032800033D0F7E702782F2A0ED142782A2A0BD1C1
:1032900000E0401C02782AB102782A2AF9D142784B
:1032A0002F2AF6D1801C20E00278222A19D110F8AA
:1032B000012B01F8012B0AE002785C2A03D110F8F7
:1032C000012B01F8012B10F8012B01F8012B0278DA
:1032D00012B10278222AEFD110F8012B01F8012B4C
:1032E00003E010F8012B01F8012B0278002AA6D187
:1032F0000A707047704702B90022704710B510205D
:1033000003F07CF904464FF4807003F077F92060F5
:1033100000206060A0604FF48070E060204610BD27
:1033200070B5044620680568284603F03FF9206818
:1033300003F03CF90020206070BD2DE9F041044607
:103340000E46E5680027B84605E06D00781C074684
:10335000202800DD03E06068281AB042F5D300BFE2
:10336000202F03DD4FF0FF30BDE8F081E068A84278
:103370000ED2284603F042F980464046D4E90012B6
:1033800001F0B2FF206803F011F9C4F80080E56095
:103390000020E9E702469068401C5368984202D931
:1033A0004FF0FF30704793681068C05C08709068F9
:1033B000401C90600020F5E770B504460E461546A7
:1033C000A06828446168884202D94FF0FF3070BD80
:1033D000284603F013F93060A3682268D1182A4602
:1033E000306801F081FFA0682844A0600020EEE76B
:1033F00030B502469068801C5568A84202D94FF04B
:10340000FF3030BD95681068435D9068401C906047
:1034100095681068445D9068401C906004EB032040
:1034200008800020EDE730B50246002400239068B4
:10343000001D5568A84201D9581E30BD07E09568A7
:103440001068405D40EA03239068401C906020466D
:10345000641C0428F3DB0B600020EEE7F8B504469B
:103460000D4600200090002669462046FFF7C0FF69
:1034700006460EB13046F8BDBDF80010A0680844FD
:103480006168884202D94FF0FF30F4E7BDF80010C0
:10349000481C03F0B3F82860BDF80010491C2868E8
:1034A00001F049FFA3682268D118BDF80020286800
:1034B00001F071FFBDF80010A0680844A060002072
:1034C000D9E72DE9F84180460C4601260027002067
:1034D0000090206000BF69464046FFF75BFF05464D
:1034E00015B12846BDE8F8819DF8001001F07F0174
:1034F000206801FB06002060F6017F1C042F02D922
:103500004FF0FF30EEE79DF8000010F0800FE2D1A1
:103510000020E7E770B504460D46A16809B901210E
:1035200000E000210846FFF7E5FE01212046FFF7F5
:1035300004FF10B14FF0FF3070BDD4E900014554D5
:103540006068401C60600020F6E770B504460E46D7
:103550001546A16809B9012100E000210846FFF7DE
:10356000C9FE29462046FFF7E8FE10B14FF0FF30B4
:1035700070BDD4E9001288182A46314601F0B4FE25
:103580006068284460600020F2E770B505460C468C
:10359000A96809B9012100E000210846FFF7AAFE49
:1035A000210A2846FFF7B6FF20B9E1B22846FFF707
:1035B000B1FF08B1012070BD0020FCE770B50546E1
:1035C0000C46A96809B9012100E000210846FFF76F
:1035D00091FE210E2846FFF79DFF80B9C4F30741F5
:1035E0002846FFF797FF50B9C4F307212846FFF795
:1035F00091FF20B9E1B22846FFF78CFF08B1012006
:1036000070BD0020FCE770B504460D460026A16899
:1036100009B9012100E000210846FFF76BFE2846AA
:1036200001F0CEFE86B231462046FFF7AEFF28B944
:10363000324629462046FFF788FF08B1012070BDB9
:103640000020FCE770B502460C4621460023002509
:1036500096680EB9012600E000263046FFF74AFEC4
:1036600000BF01F07F05C90909B145F08005566822
:10367000701C5060106885555B1C09B1052BF0DB90
:10368000052B01D0012600E000263046FFF732FE70
:10369000002070BD2DE9F04104460D46FFF72EFED7
:1036A000064610213046FFF735FF204601F088FE20
:1036B00000F10B08284601F083FE801C08EB000790
:1036C00039463046FFF7BEFFFEA13046FFF79BFFAD
:1036D00001213046FFF71EFF40213046FFF71AFF59
:1036E00080213046FFF751FF21463046FFF78BFF20
:1036F00029463046FFF787FF3046BDE8F0812DE9C7
:10370000F04104460D460026FFF7F8FD064610215D
:103710003046FFF7FFFE204601F052FE00F10D0893
:10372000284601F04DFE801C08EB00073946304664
:10373000FFF788FFE3A13046FFF765FF0121304620
:10374000FFF7E8FEC0213046FFF7E4FE8021304657
:10375000FFF71BFF00213046FFF7DCFE002130465B
:10376000FFF7D8FE21463046FFF74DFF2946304689
:10377000FFF749FF3046BDE8F0812DE9F0410446EE
:103780000E4615460027FFF7B9FD0746302138469B
:10379000FFF7C0FE204601F013FE801C00EB050879
:1037A00041463846FFF74EFF21463846FFF72BFFCC
:1037B0002A4631463846FFF7C8FE3846BDE8F08154
:1037C0002DE9F04704460D4616464FF00009CA465B
:1037D0000027B846FFF792FD81462846FFF770FAAA
:1037E0000746384601F0ECFD804680214846FFF749
:1037F00091FEA4B1204601F0E3FD001D08F1020195
:1038000000EB010A51464846FFF71CFF802148465D
:10381000FFF780FE21464846FFF7F5FE09E008F174
:10382000040A51464846FFF70DFF00214846FFF7BE
:1038300071FEF1B24846FFF76DFE39464846FFF784
:10384000E2FE384602F0B2FE4846BDE8F0872DE9B8
:10385000FF4F9FB00C4615461E462C9F4FF00008A8
:10386000C146C246C34600201D90642104A801F051
:1038700062FD00200390FFF7F2FB804647B1384617
:10388000FFF7D6FB024690A102904046FFF794FA5C
:10389000FFF7DCFB8146FFF7E2FB82462046FFF79D
:1038A000C7FB02468AA102905046FFF785FAFFF750
:1038B000CDFB8346FFF7D3FB1D903246642104A85D
:1038C000FFF719FD04A8FFF7B3FB024681A10290A0
:1038D0001D98FFF771FA284601F0A8FECDE9000116
:1038E000FFF794FB02467CA102901D98FFF764FA53
:1038F00058461D99FFF74BFA5A4679A15046FFF7F3
:103900005BFA51464846FFF742FA4A4677A14046DD
:10391000FFF752FA012241461F98FFF751FF03902B
:103920004046FDF7F8FF039823B0BDE8F08F2DE97E
:10393000FF5F9CB00E4614461D462B9F4FF00008BB
:10394000C146C246C34640461B904FF0640102A8E0
:1039500001F0F1FC00200190FFF781FB804647B1A8
:103960003846FFF765FB024657A100904046FFF737
:1039700023FAFFF76BFB8146FFF771FB8246304667
:10398000FFF756FB024652A100905046FFF714FA8B
:10399000FFF75CFB8346FFF762FB1B90642102A8E4
:1039A0002A9AFFF7A8FC02A8FFF742FB024649A1AA
:1039B00000901B98FFF700FA20462946FFF726FBE8
:1039C000024645A100901B98FFF7F6F958461B994F
:1039D000FFF7DDF95A4642A15046FFF7EDF951468F
:1039E0004846FFF7D4F94A4640A14046FFF7E4F9BC
:1039F000012241461C98FFF7E3FE01904046FDF787
:103A00008AFF019820B0BDE8F09F2DE9FF4F9DB0DF
:103A10000C4615461E462A9F4FF00008C146C24676
:103A2000C34600201C90642103A801F084FC002000
:103A30000290FFF714FB804647B13846FFF7F8FACB
:103A4000024621A101904046FFF7B6F9FFF7FEFAC2
:103A50008146FFF704FB82462046FFF7E9FA02465B
:103A60001BA101905046FFF7A7F9FFF7EFFA834635
:103A7000FFF7F5FA1C903246642103A8FFF73BFCE0
:103A800003A8FFF7D5FA024612A101901C98FFF790
:103A900093F92846FFF7CCFA02460FA101901C9833
:103AA000FFF78AF958461C99FFF771F95A460CA19D
:103AB0005046FFF781F951464846FFF768F94A46F4
:103AC0000AA119E045445000746F6B656E00000058
:103AD000696400006174000076616C756500000027
:103AE00064617461706F696E747300006461746105
:103AF00073747265616D73004046FFF75DF90122D2
:103B000041461D98FFF75CFE02904046FDF703FF1B
:103B1000029821B0BDE8F08F2DE9F05F804689461C
:103B200016460027BA46FFF79AFA0746304601F0D4
:103B30007DFD0446FFF76AFA83465A4649463846F1
:103B4000FFF73AF9032239464046FFF739FE82462D
:103B50003846FDF7E0FE5046BDE8F09F2DE9F84FEE
:103B60000746884614461D46DDE90AAB4FF00006BD
:103B7000B146FFF774FA064620462946FFF746FA93
:103B80000246414600903046FFF716F903223146BF
:103B90003846FFF715FE81463046FDF7BCFE484625
:103BA000BDE8F88F2DE9F05F06460F4614469B46A8
:103BB000DDF828900025A846FFF751FA0546204673
:103BC000FFF736FA8246524639462846FFF7F4F8A0
:103BD000032229463046FFF7F3FD80462846FDF7CD
:103BE0009AFE4046BDE8F09F2DE9FF4F9BB082460C
:103BF00016461F464FF00008C146642102A801F096
:103C00009AFB00200190FFF72AFA80463A46642189
:103C100002A8FFF770FBFFF722FA8146304601F059
:103C200005FD0446FFF7F2F983465A4602A94846C5
:103C3000FFF7C2F84A4640461C99FFF7BDF8042238
:103C400041465046FFF7BCFD01904046FDF763FE3C
:103C500001981FB0BDE8F08F2DE9F04F9BB0804672
:103C6000894614461D46DDF890A04FF00006374601
:103C70004FF0640102A801F05EFBB346FFF7EFF9D5
:103C800006465246642102A8FFF735FBFFF7E7F925
:103C9000074620462946FFF7B9F9024602A90190D6
:103CA0003846FFF789F83A4649463046FFF784F828
:103CB000042231464046FFF783FD83463046FDF738
:103CC0002AFE58461BB0BDE8F08F2DE9F04F9BB09F
:103CD0008046894614461D46DDF890B00026002730
:103CE000642102A801F027FBB246FFF7B8F90646A7
:103CF0002A46642102A8FFF7FEFAFFF7B0F907464B
:103D00002046FFF795F9024602A901903846FFF7D1
:103D100053F83A4649463046FFF74EF804223146FA
:103D20004046FFF74DFD82463046FDF7F4FD504614
:103D30001BB0BDE8F08F2DE9F84F05460E4617463B
:103D40009846DDE90A944FF0000A012D04D0032DB6
:103D50000BD0042D1BD111E04B464246394630466C
:103D60000094FFF774FD824612E04B464246394606
:103D700030460094FFF7D0FE824609E04B464246AB
:103D8000394630460094FFF72FFF824600E000BF1F
:103D900000BF5046BDE8F88F2DE9FC5F804689469C
:103DA00092460CACF0CC4FF0000BB8F1010F06D0EE
:103DB000B8F1030F0DD0B8F1040F1ED113E0224665
:103DC0002B4651464846CDE90067FFF7B0FD8346D4
:103DD00014E022462B4651464846CDE90067FFF7DE
:103DE000BDFE83460AE022462B4651464846CDE9B1
:103DF0000067FFF731FF834600E000BF00BF584671
:103E0000BDE8FC9F2DE9F84F05460E46174698463B
:103E1000DDE90A944FF0000A012D04D0032D0BD0E8
:103E2000042D1BD111E04B464246394630460094E2
:103E3000FFF7EBFD824612E04B46424639463046DC
:103E40000094FFF7AFFE824609E04B4642463946F2
:103E500030460094FFF739FF824600E000BF00BF04
:103E60005046BDE8F88F38B504460D4669462046F1
:103E7000FFF7F4FA08B1FE4838BD0098FEF756FB8C
:103E80002860009802F092FB286810B96FF48060F7
:103E9000F2E7D4E90121914201D1012100E00021A2
:103EA0000846FFF727FA0020E6E72DE9FC5F824687
:103EB0000C461546002001900026002780468146CA
:103EC000009001A95046FFF7CEFF10B1E848BDE8C9
:103ED000FC9FAFF2E8310198FEF72FFF064626B1AE
:103EE0003046FEF718FF012801D0E148EFE7002136
:103EF0003046FEF719FF07460FB9DD48E7E7AFF296
:103F000030413846FEF719FFD0F81080404601F0E6
:103F100057FA00F1010B584602F070FB2060404652
:103F200001F04EFA00F1010B5A464146206801F0BB
:103F3000DBF9AFF254413846FEF7FFFE8146B9F196
:103F4000000F04D04846FEF7E6FE012801D0C8481D
:103F5000BDE700214846FEF7E7FE0090AFF288413A
:103F60000098FEF7EAFE406928600198FDF7D3FC4F
:103F70000020ACE72DE9FC5F82460C461546002088
:103F800001900026002780468146009001A95046F6
:103F9000FFF769FF10B1B648BDE8FC9FAFF2B4412E
:103FA0000198FEF7CAFE064626B13046FEF7B3FE7C
:103FB000012801D0AE48EFE700213046FEF7B4FEFD
:103FC00007460FB9AA48E7E7AFF2FC413846FEF7CB
:103FD000B4FED0F81080404601F0F2F900F1010B78
:103FE000584602F00BFB2060404601F0E9F900F171
:103FF000010B5A464146206801F076F9AFF2205194
:104000003846FEF79AFE8146B9F1000F04D04846C3
:10401000FEF781FE012801D09548BDE70021484602
:10402000FEF782FE0090AFF250510098FEF785FE39
:10403000C1698069C5E900010198FDF76CFC0020A9
:10404000AAE72DE9FF4F83B00C4615461E46002017
:1040500002900027804681468246019002A903987B
:10406000FFF701FF18B1824807B0BDE8F08FAFF24B
:1040700084510298FEF761FE074627B13846FEF7E5
:104080004AFE012801D07A48EEE700213846FEF7C3
:104090004BFE8046B8F1000F01D17548E4E7AFF25E
:1040A000D0514046FEF749FED0F81090484601F046
:1040B00087F900F1010B584602F0A0FA206048464B
:1040C00001F07EF900F1010B5A464946206801F0E3
:1040D0000BF9AFF2F4514046FEF72FFE8246BAF1DB
:1040E000000F04D05046FEF716FE012801D06048AC
:1040F000BAE700215046FEF717FE0190AFF22861A3
:104100000198FEF71AFE0669304601F059F900F1F0
:10411000010B584602F072FA2860304601F050F95F
:1041200000F1010B5A463146286801F0DDF802988B
:10413000FDF7F1FB002097E72DE9F84380460C4698
:104140001646994600200090002500276946404603
:10415000FFF789FE10B14648BDE8F88300988068F3
:1041600020B90098FDF7D7FB4148F5E7009885682E
:10417000286A01F025F9471C384602F03FFA206012
:10418000296A3A46206801F0AFF868693060009803
:10419000FDF7C1FB0020DFE72DE9F84380460C4620
:1041A00016469946002000900025002769464046A3
:1041B000FFF759FE10B12E48BDE8F88300988068DB
:1041C00020B90098FDF7A7FB2948F5E70098856816
:1041D000286A01F0F5F8471C384602F00FFA206013
:1041E000296A3A46206801F07FF8D5E90601C6E958
:1041F00000010098FDF78FFB0020DDE72DE9F84F67
:1042000081460C4615461E46002000900027804639
:1042100069464846FFF727FE10B11548BDE8F88FFC
:104220000098806820B90098FDF775FB1048F5E705
:1042300000988768386A01F0C3F800F10108404629
:1042400002F0DCF92060396A4246206801F04CF83F
:104250003E69304601F0B4F800F1010A504602F020
:10426000CDF92860304601F0ABF800F1010A01E019
:1042700000FCFFFF52463146286801F035F80098EF
:10428000FDF749FB0020C9E72DE9F84380460D46BC
:1042900016469946002000900024002769464046B3
:1042A000FFF7E1FD10B1F948BDE8F8830098846894
:1042B0000CB1206A20B90098FDF72DFBF348F3E715
:1042C000206A01F07DF8471C384602F097F9286013
:1042D000216A3A46286801F007F8A46824B90098D2
:1042E000FDF719FBE948DFE7606930600098FDF7EA
:1042F00012FB0020D8E72DE9F84380460D4616460C
:104300009946002000900024002769464046FFF7A8
:10431000AAFD10B1DD48BDE8F883009884680CB1AF
:10432000206A20B90098FDF7F6FAD848F3E7206A2A
:1043300001F046F8471C384602F060F92860216A0F
:104340003A46286800F0D0FFA46824B90098FDF729
:10435000E2FACE48DFE7D4E90601C6E90001009899
:10436000FDF7D9FA0020D6E72DE9F84F81460D4632
:1043700016461F46002000900024804669464846A5
:10438000FFF771FD10B1C148BDE8F88F009884684F
:104390000CB1206A20B90098FDF7BDFABB48F3E7DD
:1043A000206A01F00DF800F10108404602F026F9FC
:1043B0002860216A4246286800F096FFA46824B964
:1043C0000098FDF7A8FAB148DEE72769384600F003
:1043D000F7FF00F1010A504602F010F9306038464C
:1043E00000F0EEFF00F1010A52463946306800F055
:1043F0007BFF0098FDF78FFA0020C5E72DE9F0411B
:1044000004460D4616461F464FF0FF38012C04D0D7
:10441000032C0AD0042C18D10FE04B463A46314603
:104420002846FFF742FD804610E04B463A463146AB
:104430002846FFF781FE804608E04B463A46314663
:104440002846FFF721FF804600E000BF00BF40463E
:10445000BDE8F0812DE9F04104460D4616461F46A1
:104460004FF0FF38012C04D0032C0AD0042C18D1B3
:104470000FE04B463A4631462846FFF77BFD804623
:1044800010E04B463A4631462846FFF785FE804607
:1044900008E04B463A4631462846FFF72CFF804657
:1044A00000E000BF00BF4046BDE8F0812DE9F041CB
:1044B00004460D4616461F464FF0FF38012C04D027
:1044C000032C0AD0042C18D10FE04B463A46314653
:1044D0002846FFF7B6FD804610E04B463A46314687
:1044E0002846FFF78BFE804608E04B463A463146A9
:1044F0002846FFF739FF804600E000BF00BF404676
:10450000BDE8F0813EB504460D46002002900190C2
:10451000009002A92046FEF7D4FF10B16FF481602D
:104520003EBD01A92046FEF735FF10B16FF4816052
:10453000F6E769462046FEF75BFF10B16FF4816035
:10454000EEE7BDF8002029462046FEF735FF10B102
:104550006FF48160E4E70020E2E72DE9F05F0546B3
:104560000F4690461C464FF0000AD346D14600261F
:104570003846FEF7A5FB8146484600F021FF064677
:10458000B6F5803F07D8B4F5401F04D840A138469F
:10459000FEF7D3FB28B9484602F008F80020BDE832
:1045A000F09FFEF7ABFE824680215046FEF7B2FF39
:1045B000ADB1284600F004FF001DB11C0144201DD0
:1045C00001EB000B59465046FFF73CF8802150465E
:1045D000FEF7A0FF29465046FFF715F80BE0301D07
:1045E000211D00EB010B59465046FFF72BF8002127
:1045F0005046FEF78FFF02215046FEF78BFF4946DB
:104600005046FFF700F8484601F0D0FF21465046DB
:10461000FEF7D4FF224641465046FEF796FF50462D
:10462000BDE72DE9F04705460F4690461C464FF082
:104630000009CA460026384600F0C2FE0646B6F516
:10464000803F02D8B4F5401F02D90020BDE8F087B2
:10465000FEF754FE814680214846FEF75BFFDDB140
:10466000284600F0ADFE001DB11C0144201D01EBE9
:10467000000A51464846FEF7E5FF80214846FEF70E
:1046800049FF29464846FEF7BEFF11E000FCFFFF48
:1046900064735F6964000000301D211D00EB010A96
:1046A00051464846FEF7CEFF00214846FEF732FF4E
:1046B00002214846FEF72EFF39464846FEF7A3FF83
:1046C00021464846FEF77AFF224641464846FEF715
:1046D0003CFF4846BAE72DE9F04706460D46174627
:1046E0001C464FF00008C146FEF708FE8046281918
:1046F0000CB1062100E0022100EB0109B021404687
:10470000FEF708FF49464046FEF79CFF2946404613
:10471000FEF73BFF2A4631464046FEF716FF44B1FE
:1047200021464046FEF74AFF224639464046FEF7FC
:104730000CFF4046BDE8F08710B50024FEF7DEFD13
:104740000446C0212046FEF7E5FE00212046FEF784
:1047500079FF204610BDF0B502464FF0000C002353
:1047600001250026012100240027D2F800C053684B
:10477000012B01D80020F0BD644600BF042902D9F6
:104780004FF0FF30F7E7581E884201D20020F2E7D1
:10479000491C641C207800F07F0000FB0566ED01D9
:1047A000207810F0800FE9D18F199F4201D8384648
:1047B000E1E70020DFE770B5044600260025A16888
:1047C00009B9012100E000210846FEF793FD2046CB
:1047D000FFF7C1FF0546002D01DC304670BDFEF736
:1047E0008DFD06462A4630462168FEF7AEFE636818
:1047F0005A1B23685919184600F076FD6068401B63
:1048000060603046EAE718B504460020009069462B
:104810002046FEF7BFFD9DF8000018BD1EB50446FA
:1048200069462046FEF74DFE08B1BF481EBD02A9ED
:104830002046FEF7AFFD10B16FF47A70F6E701A9DC
:104840002046FEF7A7FD10B1B748801EEEE7D4E979
:104850000121914201D1012100E000210846FEF72B
:1048600049FD9DF80400E1E7F8B504460D461646FB
:104870001F4669462046FEF724FE10B1AA480A38B2
:10488000F8BD29462046FEF7E9FD10B1A6480B38D1
:10489000F6E7286800F094FD801C0099081A009043
:1048A00031462046009AFEF787FD10B19E480C382D
:1048B000E6E700983860D4E90121914201D1012155
:1048C00000E000210846FEF715FD0020D8E77CB582
:1048D00006460C46154601A93046FEF7F2FD10B11A
:1048E000914814387CBD69463046FEF753FD10B13F
:1048F0006FF47F70F6E79DF80000802807D121460D
:104900003046FEF7ABFD20B187481638EAE70020B5
:10491000206029463046FEF73DFD10B18248173829
:10492000E0E70020DEE7F8B504460D4617461E46D0
:1049300069462046FEF792FD10B17B481A38F8BD53
:104940000098FDF7F3FD2860009801F02FFE28681D
:1049500010B975481B38F2E731462046FEF763FD73
:1049600010B171481C38EAE7394620463268FEF734
:1049700023FD10B16C481D38E1E7D4E901219142D3
:1049800001D1012100E000210846FEF7B3FC002020
:10499000D5E72DE9F04104460F4616461D46394637
:1049A0002046FEF75BFD18B15F481A38BDE8F0817C
:1049B00029462046FEF737FD10B15B481C38F5E765
:1049C000314620462A68FEF7F7FC10B156481D38DC
:1049D000ECE7D4E90121914201D1012100E000215D
:1049E0000846FEF787FC0020E0E72DE9F84305467E
:1049F000894616461F46DDF8208069462846FEF7A0
:104A000060FD18B148481F38BDE8F8833146284694
:104A1000FEF7EEFC04460CB12046F5E73288494625
:104A20002846FEF7C9FC10B13F481F38ECE7414665
:104A30002846FEF7F8FC04460CB12046E4E7394668
:104A40002846D8F80020FEF7B7FC10B136481F38CA
:104A5000DAE7D5E90121914201D1012100E00021ED
:104A60000846FEF747FC0020CEE718B50446694625
:104A70002046FEF726FD10B12B481E3818BDD4E99C
:104A80000121914201D1012100E000210846FEF7F9
:104A900031FC0020F2E72DE9F04104460D460027E5
:104AA000B8460026FEF72AFC0746284600F088FC98
:104AB000064680213846FEF72DFD9CB1204600F0C9
:104AC0007FFC001DB11C00EB010841463846FEF793
:104AD000B9FD80213846FEF71DFD21463846FEF718
:104AE00092FD09E006F1040841463846FEF7AAFDAA
:104AF00000213846FEF70EFD05213846FEF70AFD77
:104B000029463846FEF77FFD3846BDE8F08170B58E
:104B100004460D4629462046FEF7A0FC10B1024887
:104B2000183870BD0020FCE718FCFFFF2DE9F047A6
:104B300006460F4614460025A84627E04FF480613C
:104B4000BB4800F0F8FB0020BA490860304600F08E
:104B500037FC81464A463146B748FCF7C6FB00257C
:104B60000BE06420FCF72CFD3946B14800F0FDFB5A
:104B700010B14FF0010802E06D1CA542F1DB00BF4F
:104B8000A54202DBB8F1000F00D000E0D6E700BF7D
:104B9000BDE8F08710B54FF4FA60FCF711FDA7A14E
:104BA000ACA000F08BFF0A22ACA1ADA0FFF7BEFFC6
:104BB000ADA1A8A000F082FFB1A1A6A000F07EFFE9
:104BC0000A22A6A1B5A0FFF7B1FFB8A1A1A000F0ED
:104BD00075FFBDA19FA000F071FF28229FA1C1A079
:104BE000FFF7A4FFC2A19BA000F068FFC6A199A097
:104BF00000F064FF142299A1CAA0FFF797FFCCA18F
:104C000094A000F05BFFD1A192A000F057FF2822F2
:104C100092A1D5A0FFF78AFFDBA18EA000F04EFF86
:104C20004FF4FA60FCF7CCFCDEA18AA000F046FF4E
:104C300014228AA1E3A0FFF779FFECA185A000F080
:104C40003DFFF1A183A000F039FF0A2283A1F6A065
:104C5000FFF76CFFF8A17FA000F030FF10BD00B59A
:104C600087B01C21684600F066FBFCF745FC4FF45A
:104C70008061F84800F05FFBF7A1F64800F067FBA1
:104C8000F6A1F44800F063FBF7480278F7A1684604
:104C900000F024FF6946EF4800F059FBF4A1ED480D
:104CA00000F055FBF3A1EB4800F051FBF54802780A
:104CB000EEA1684600F012FF6946E64800F047FBA7
:104CC000EBA1E44800F043FBEFA1E24800F03FFB1A
:104CD000F1480278E5A1684600F000FF6946DD482A
:104CE00000F035FBE2A1DB4800F031FBEBA1D94835
:104CF00000F02DFBEC480278DCA1684600F0EEFEE7
:104D00006946D44800F023FBD9A1D24800F01FFB2C
:104D100007B000BD2DE9F04106460F4614460025B8
:104D2000434800F04DFB80464146414800F003FBFC
:104D3000002040490860DDA146A000F0BFFE0C2223
:104D4000E4A13D48FCF7D1FA00BF09E06420FCF77C
:104D500037FCE4A1364800F008FB00B102E06D1C0E
:104D6000A542F3DB00BF39463046FEF793FCDE492F
:104D70000860C820FCF724FCDB4800684268DA4879
:104D8000006801682C48FCF7B0FA4FF4FA70FCF7A1
:104D900017FCD548FEF7C4FAC820FCF711FC032223
:104DA000D2A12548FCF7A1FA3220FCF709FCD0A1DA
:104DB00028A000F083FEBDE8F08170B5044600260F
:104DC00000254FF480611A4800F0B5FA0020194917
:104DD0000860D1A11FA000F071FE0E22D9A11648D3
:104DE000FCF783FA00BFD6E16420FCF7E9FBD9A108
:104DF0000F4800F0BAFA10B16FF00306CEE1D8A167
:104E00000B4800F0B2FA08B10026C7E1D7A1084864
:104E100000F0ABFA10B16FF00106BFE1D6A1044873
:104E200000F0A3FA10B16FF00406B7E1AAE10000A8
:104E3000580000202C000020004400405B455350E7
:104E4000383236365F496E69745D454E544552209E
:104E500041542E0025730D0A000000004F4B000046
:104E600041540D0A000000005B455350383236367D
:104E70005F496E69745D455849542041542E0000C5
:104E80005B455350383236365F496E69745D454E26
:104E90005445522043574D4F44452E0041542B4317
:104EA000574D4F44453D310D0A0000005B455350BE
:104EB000383236365F496E69745D4558495420432F
:104EC000574D4F44452E00005B455350383236361F
:104ED0005F496E69745D454E544552205253542EBD
:104EE0000000000041542B5253540D0A00000000F2
:104EF0005B455350383236365F496E69745D4558AC
:104F00004954205253542E005B45535038323636A4
:104F10005F496E69745D454E54455220434946537E
:104F2000522E000041542B43494653520D0A0000B3
:104F30005B455350383236365F496E69745D45586B
:104F400049542043494653522E0000005B455350BC
:104F5000383236365F496E69745D454E544552208D
:104F600043574A41502E000041542B43574A415069
:104F70003D2274657374222C223132333435363736
:104F8000383930220D0A00005B455350383236362E
:104F90005F496E69745D455849542043574A4150F2
:104FA0002E0000005B455350383236365F496E693B
:104FB000745D454E54455220434950535441525418
:104FC0002E00000041542B43495053544152543D4C
:104FD00022544350222C223139322E3136382E3190
:104FE00039312E31222C3837360D0A005B455350AB
:104FF000383236365F496E69745D455849542043EE
:105000004950534152542E005B4553503832363686
:105010005F496E69745D454E544552204349504D79
:105020004F44452E0000000041542B4349504D4F42
:1050300044453D310D0A00005B4553503832363649
:105040005F496E69745D45584954204349504D4F3E
:1050500044452E00580500202C3B00007265645F1B
:1050600073746174752C0000340000202564000006
:105070003B000000677265656E5F73746174752C28
:10508000000000003700002079656C6C6F775F735B
:10509000746174752C00000035000020626C756529
:1050A0005F73746174752C00360000205B455350AB
:1050B000383236365F4465764C696E6B5D454E54CA
:1050C000455220646576696365206C696E6B2E2E8F
:1050D0002E00000041542B43495053454E440D0AC5
:1050E000000000003E000000440000202B2B2B009D
:1050F0005B455350383236365F4465764C696E6B8B
:105100005D4558495420646576696365206C696E15
:105110006B2E2E2E000000005B4553503832363681
:105120005F436865636B5374617475735D454E547A
:10513000455220636865636B207374617475732EC8
:105140002E2E000041542B43495053544154555383
:105150000D0A00005354415455533A3400000000E6
:105160005354415455533A330000000053544154B2
:1051700055533A32000000005354415455533A35C8
:10518000000000002FA1314800F0EFF810B14FF0FF
:10519000FF3603E06D1CA542FFF626AE00BF2CA132
:1051A000AFF2503000F08AFC304670BD10B50024DC
:1051B0004FF48061254800F0BEF800202F490860B8
:1051C0002FA1AFF2703000F079FC0C22AFF2FC019D
:1051D0003448FCF78AF800BF0AE06420FCF7F0F9D5
:1051E000AFF20011194800F0C0F800B102E0641CF1
:1051F000282CF2DB00BFFFF732FD2B492BA0FFF775
:105200004AFC2C4908600846006842680846006865
:1052100001682448FCF769F82648FEF781F84FF446
:10522000FA70FCF7CDF90322AFF240111D48FCF7EC
:105230005CF8C820FCF7C4F91FA1AFF2E83000F019
:105240003DFC10BD4552524F520000005800002056
:105250005B455350383236365F436865636B537431
:10526000617475735D4558495420636865636B20AC
:105270007374617475732E2E2E0000002C000020B4
:105280005B455350383236365F53656E6444617403
:105290005D454E5445522053656E64646174612EC1
:1052A0002E2E0000004400405805002037373133CF
:1052B00032330000440000205B455350383236360C
:1052C0005F53656E644461745D455849542053656D
:1052D0006E64646174612E2E2E000000A0F1410105
:1052E000192900D82030704710B5431A934209D2CB
:1052F0008318881803E010F8011D03F8011D521EE1
:10530000F9D210BD40EA01039B0703D009E008C9A8
:10531000121F08C0042AFAD203E011F8013B00F87A
:10532000013B521EF9D210BDD2B201E000F8012BB0
:10533000491EFBD270470022F6E710B50446084626
:10534000114602462046FFF7EFFF204610BD0346F8
:1053500000E0401C0278002AFBD111F8012B00F874
:10536000012B002AF9D11846704730B50EE00346EC
:105370000A4601E05B1C521C1C781578AC4201D136
:10538000002CF7D115F0FF0F04D0401C0278002A42
:10539000EDD1002030BD10B5044604E00B7800F8D4
:1053A000013B03B1491C521EF8D2204610BDCAB2BF
:1053B0000178914203D009B1401CF9E70020704701
:1053C0000146002000E0401C0A5C002AFBD1704727
:1053D000034611F8012B00F8012B002AF9D11846D9
:1053E000704730B505460020034600E05B1C934241
:1053F00005D2EC5CC85C201A01D1002CF6D130BD7E
:105400002DE9FE4F074681EA0300C00F0E460190CA
:1054100021F0004123F00044B81AA14105D23846DA
:10542000314617461E460B46024623F00040104305
:1054300004D13846314603B0BDE8F08F350DC5F3D1
:105440000A00C3F30A510290401A0090402868DA1B
:10545000C3F3130040F4801B0198924620B100234F
:10546000D2EB030A63EB0B0B00985946C0F14002E4
:10547000504600F090F980460C4650465946009A36
:1054800000F0A8F9C0197141EF1785EA11533B43A9
:1054900040D0019A52B3009A012A11DC0022801AEE
:1054A0004FF0004361EB055103EA05538018CDE945
:1054B000002341F580114246234600F0AAF9BAE7DD
:1054C0002E050025401B61EB0601401941F58012B5
:1054D000001852412818A6F5001343EB020140EAD8
:1054E000D470294318EB0808644113E064084FEABC
:1054F00038084FF0000244EAC0744FEA0553801A9E
:1055000061EB0301801841F5801149084FEA300032
:10551000801859414246234603B0BDE8F04F00F0E1
:105520006BB90198012240000023D0EB020263EB2B
:10553000E07301984FEAE074381A66EB0401EBE778
:1055400083F000435CE781F0004159E72DE9FE4F0D
:1055500081EA030421F0004504F0004423F00041F7
:105560004FF0000A009450EA050302D052EA01030A
:1055700004D10020014603B0BDE8F08FC1F30A5307
:10558000C5F30A541C44A0FB02B3C5F3130545F44C
:10559000801CC1F3130141F480180CFB023300FBA3
:1055A000083EA4F2F334810A930A41EA8C5143EA9B
:1055B00088530194A1FB03474FEA9C2505FB037325
:1055C0004FEA982601FB06373D05260545EA1435C6
:1055D000BBEB06016EEB0503850E920E45EA8C15BA
:1055E00042EA8812A5FB0206261E67EB00070C0D97
:1055F00044EA0334A41947EB1350C1F313064FF0E8
:10560000000319464FEA033343EA165343EA0403FF
:10561000019CE5FB0201A4F10C040294009C4FEAFA
:105620000632CDE900A400F0F4F8A4E70EB5C10FEE
:1056300080EAE0700844CA07002140F233438DE855
:105640000E000A460B4600F0E4F803B000BD70B54A
:10565000C1F30A5201F000450024C1F3130140F2E6
:10566000FF3341F480119A4201DA002070BD40F20C
:1056700033439A42A2F2334203DC524200F09AF8DA
:1056800000E090402C43F1D0404270BD00F0004259
:1056900030F000400DD0C10D01F5607142EA0151BA
:1056A0000022C0F31600520742EAD002400711431D
:1056B000704700200146704730B5002904DB4FF0E9
:1056C0000044404264EB0101002B04DB4FF0004436
:1056D000524264EB03038B4208BF824230BD00009C
:1056E00030B5002904DB4FF00044404264EB010177
:1056F000002B04DB4FF00044524264EB0303994259
:1057000008BF904230BD000030B50B460146002076
:105710002022012409E021FA02F59D4205D303FA73
:1057200002F5491B04FA02F52844151EA2F10102F4
:10573000F1DC30BD2DE9F05F0546002092469B4626
:1057400088460646814640241BE028464146474697
:10575000224600F02FF852465B46801A994110D33A
:1057600010461946224600F016F82D1A67EB01087C
:105770004F4622460120002100F00DF817EB0009EA
:105780004E41201EA4F10104DFDC484631462A4682
:105790004346BDE8F09F202A04DB203A00FA02F1DC
:1057A000002070479140C2F1200320FA03F319430F
:1057B00090407047202A04DB203A21FA02F00021B1
:1057C000704721FA02F3D040C2F120029140084311
:1057D00019467047202A06DBCB17203A41FA02F01F
:1057E00043EAE071704741FA02F3D040C2F120026F
:1057F000914008431946704710B5002B08DA401C49
:1058000041F1000192185B411A4301D120F00100DF
:1058100010BD2DE9F04D92469B4611B1B1FA81F2CF
:1058200002E0B0FA80F220329046FFF7B4FF06465D
:105830000F4640EA0A0041EA0B0152465B46084324
:1058400003D130463946BDE8F08D194652EA0100D1
:1058500015D0C8F140025046FFF7ACFF04460D4694
:10586000504659464246FFF796FF084301D00120B3
:1058700000E00020044345EAE07526432F430A98E0
:105880004FEAD625A0EB08000A304FEA46534FF006
:10589000000245EA47554FEAD72402D500200146C9
:1058A000D1E7010550196141DDE908450019694159
:1058B000BDE8F04DA0E72DE9F04D81EA030404F0C6
:1058C000004B21F0004714464FF0000A23F000413E
:1058D00050EA070220D054EA01021DD0C1F30A5554
:1058E0000246C1F31300C7F30A56C7F3130340F48B
:1058F000801143F48013A6EB0508101BD64608F26E
:10590000FD3873EB010002D308F1010801E09218A1
:105910005B41B8F1000F03DA00200146BDE8F08DCD
:1059200000204FF48015064607460EE0B2EB040C4B
:1059300073EB010C04D3121B064363EB01032F43EB
:105940006D084FEA300092185B4150EA050CEDD12A
:1059500052EA030012D082EA040083EA01052843D8
:1059600003D100224FF0004308E0101B8B4102D20C
:105970000122002302E06FF0010253101AEB06002F
:1059800047EB085110EB0A0041EB0B01BDE8F04D6D
:10599000FFF732BF70B521F0004303430CD0C1F3D1
:1059A0000A540026D4EB060566EB0603D417AD1A9D
:1059B000A34102DB0020014670BD001C41EB0251F7
:1059C00070BDC1F30A52C1F3130140F2FF3341F439
:1059D00080119A4202DA00200146704740F23343B8
:1059E0009A42A2F2334202DC5242FFF7E3BEFFF7D3
:1059F000D2BE0000064C074D06E0E06840F001030F
:105A000094E8070098471034AC42F6D3FAF794FBB9
:105A100038710008587100082DE9F04D00231A462E
:105A20001B1A8A4103DB00200146BDE8F08DC1F35B
:105A30000A52C1F3130141F480154FF0000BD10756
:105A400002D100186D41521E0026044640F2FF119B
:105A5000304601EB620A37468046024600204FF48A
:105A60008011FFF7A7FE80197941331847EB010237
:105A7000B4EB030C75EB020C04D3E41A65EB0205DE
:105A800006460F46241908F101006D41804634286E
:105A9000E3DDB11947EB0700091BA84103D24FF022
:105AA000FF32134601E0002213461BEB060047EBD2
:105AB0000A51BDE8F04DFFF79FBE00000FB4054B43
:105AC00010B503A9044A029800F050F910BC5DF823
:105AD00014FB000059110008480000200FB4084BC7
